:100000000C9462000C948A000C948A000C948A0070
:100010000C948A000C948A000C948A000C948A0038
:100020000C948A000C948A000C948A000C948A0028
:100030000C948A000C948A000C948A000C948A0018
:100040000C94C4020C948A000C9434030C940E0398
:100050000C948A000C948A000C948A000C948A00F8
:100060000C948A000C948A000000000024002700F1
:100070002A0000000000250028002B0000000000DE
:1000800023002600290004040404040404040202DA
:100090000202020203030303030301020408102007
:1000A0004080010204081020010204081020000012
:1000B0000008000201000003040700000000000027
:1000C0000000FD0411241FBECFEFD8E0DEBFCDBF7E
:1000D00011E0A0E0B1E0E8EAFAE002C005900D927C
:1000E000A43EB107D9F722E0A4EEB1E001C01D9211
:1000F000A439B207E1F710E0C2E6D0E004C02197CE
:10010000FE010E944C05C136D107C9F70E94660363
:100110000C9452050C940000833081F028F4813057
:1001200099F08230A9F008958730A9F08830C9F09D
:100130008430B1F4809180008F7D03C08091800075
:100140008F7780938000089584B58F7784BD08955C
:1001500084B58F7DFBCF8091B0008F778093B00006
:1001600008958091B0008F7DF9CFCF93DF93282F32
:1001700030E0F901E255FF4F8491F901E656FF4F57
:10018000D491F901EA57FF4FC491CC23A1F081111A
:100190000E948C00EC2FF0E0EE0FFF1FE458FF4FA1
:1001A000A591B491EC91ED2381E090E009F480E019
:1001B000DF91CF91089580E090E0FACF1F93CF9325
:1001C000DF93282F30E0F901E255FF4F8491F901C8
:1001D000E656FF4FD491F901EA57FF4FC491CC2363
:1001E000A9F0162F81110E948C00EC2FF0E0EE0F89
:1001F000FF1FEE58FF4FA591B4918FB7F894EC9183
:10020000111108C0D095DE23DC938FBFDF91CF9111
:100210001F910895DE2BF8CFCF93DF9390E0FC0180
:10022000E656FF4F24918A579F4FFC018491882303
:10023000D1F090E0880F991FFC01E859FF4FA5917C
:10024000B491FC01EE58FF4FC591D491623071F426
:100250009FB7F8943C91822F809583238C93E881FB
:100260002E2B28839FBFDF91CF9108958FB7F894ED
:10027000EC912E2B2C938FBFF6CF2FB7F894609173
:10028000F3017091F4018091F5019091F6012FBF77
:100290000895AF92BF92CF92DF92EF92FF920F93A9
:1002A0001F93CF93DF936C017B018B01040F151F0C
:1002B000EB015E01AE18BF08C017D10759F0699174
:1002C000D601ED91FC910190F081E02DC6010995D8
:1002D000892B79F7C501DF91CF911F910F91FF9085
:1002E000EF90DF90CF90BF90AF900895FC01538DB9
:1002F000448D252F30E0842F90E0821B930B541700
:1003000010F0CF96089501970895FC01918D828D8C
:10031000981761F0A28DAE0FBF2FB11D5D968C9125
:10032000928D9F5F9F73928F90E008958FEF9FEF64
:100330000895FC01918D828D981731F0828DE80F20
:10034000F11D858D90E008958FEF9FEF0895FC01DA
:10035000918D228D892F90E0805C9F4F821B9109A7
:100360008F739927089587EF91E00E94A70121E0FC
:10037000892B09F420E0822F089580E090E0892BFA
:1003800029F00E94B30181110C9400000895FC0132
:10039000A48DA80FB92FB11DA35ABF4F2C91848DE6
:1003A00090E001968F739927848FA689B7892C9343
:1003B000A089B1898C91837080648C93938D848D96
:1003C000981306C00288F389E02D80818F7D808399
:1003D0000895EF92FF920F931F93CF93DF93EC0159
:1003E00081E0888F9B8D8C8D98131AC0E889F989DC
:1003F000808185FF15C09FB7F894EE89FF896083DF
:10040000E889F98980818370806480839FBF81E05F
:1004100090E0DF91CF911F910F91FF90EF900895A1
:10042000F62E0B8D10E00F5F1F4F0F731127E02E7C
:100430008C8D8E110CC00FB607FCFACFE889F989B4
:10044000808185FFF5CFCE010E94C701F1CFEB8DF2
:10045000EC0FFD2FF11DE35AFF4FF0829FB7F89488
:100460000B8FEA89FB8980818062CFCFCF93DF93A6
:10047000EC01888D8823B9F0AA89BB89E889F989BC
:100480008C9185FD03C0808186FD0DC00FB607FCF1
:10049000F7CF8C9185FFF2CF808185FFEDCFCE0124
:1004A0000E94C701E9CFDF91CF91089560E085E018
:1004B0000E94DE0060E086E00C94DE00FC0101900A
:1004C0000020E9F73197AF01481B590BBC0187EFBA
:1004D00091E00C9449018F929F92AF92BF920F933B
:1004E0001F93CF93DF93CDB7DEB7A1970FB6F894E4
:1004F000DEBF0FBECDBF19A2423008F44AE08E0124
:100500000F5D1F4F842E912CB12CA12CA5019401BD
:100510000E942A05E62FB901CA01EA30F4F4E05D31
:10052000D801EE938D01232B242B252B79F790E016
:1005300080E0109719F0CD010E945E02A1960FB6DF
:10054000F894DEBF0FBECDBFDF91CF911F910F9109
:10055000BF90AF909F908F900895E95CE1CFCF93CB
:10056000DF930E945E02EC0182E191E00E945E0254
:100570008C0F9D1FDF91CF910895BC01990F880BBF
:10058000990B4AE00C946B021F920F920FB60F92D8
:1005900011242F933F938F939F93AF93BF93809199
:1005A000F3019091F401A091F501B091F601309121
:1005B000F20123E0230F2D3758F50196A11DB11D3F
:1005C0002093F2018093F3019093F401A093F5013D
:1005D000B093F6018091EE019091EF01A091F001AE
:1005E000B091F1010196A11DB11D8093EE01909390
:1005F000EF01A093F001B093F101BF91AF919F91F2
:100600008F913F912F910F900FBE0F901F901895D3
:1006100026E8230F0296A11DB11DD2CF1F920F9283
:100620000FB60F9211242F933F934F935F936F93C5
:100630007F938F939F93AF93BF93EF93FF9387EF36
:1006400091E00E94C701FF91EF91BF91AF919F91FF
:100650008F917F916F915F914F913F912F910F906B
:100660000FBE0F901F9018951F920F920FB60F920A
:1006700011242F938F939F93EF93FF93E0910702A1
:10068000F09108028081E0910D02F0910E0282FD4E
:100690001BC09081809110028F5F8F732091110297
:1006A000821741F0E0911002F0E0E950FE4F958F83
:1006B00080931002FF91EF919F918F912F910F9056
:1006C0000FBE0F901F9018958081F4CF789484B559
:1006D000826084BD84B5816084BD85B5826085BD3E
:1006E00085B5816085BD80916E00816080936E00CC
:1006F00010928100809181008260809381008091BE
:10070000810081608093810080918000816080936E
:1007100080008091B10084608093B1008091B0002E
:1007200081608093B00080917A00846080937A0029
:1007300080917A00826080937A0080917A00816053
:1007400080937A0080917A00806880937A0010927A
:10075000C10062E082E00E940C0162E083E00E943E
:100760000C0161E085E00E940C0161E086E00E94DE
:100770000C0161E08EE00E940C01E0910702F09113
:10078000080282E08083E0910302F091040210826B
:10079000E0910502F09106028FEC808310920F0227
:1007A000E0910B02F0910C0286E08083E091090257
:1007B000F0910A02808180618083E0910902F091CA
:1007C0000A02808188608083E0910902F0910A0228
:1007D000808180688083E0910902F0910A02808123
:1007E0008F7D808385E191E00E94AF02C0E0D0E080
:1007F00011E00E943D01C090EA01D090EB01E09031
:10080000EC01F090ED016C197D098E099F09643FA0
:10081000714081059105A0F08EE00E94B50061E075
:10082000892B09F060E08EE00E94DE000E943D010D
:100830006093EA017093EB018093EC019093ED01DA
:1008400082E00E94B500892B99F582E291E00E9436
:10085000AF0282E00E94B500892B51F11093E901AB
:100860000E943D016093E5017093E6018093E701EA
:100870009093E80161E085E00E94DE0060E086E0A0
:100880000E94DE0085E391E00E945E028091E90112
:1008900090E00E94BD028EE391E00E945E020E9401
:1008A0003D014AE00E946B0289E491E00E94AF02A0
:1008B00083E00E94B500892B99F580E791E00E94C2
:1008C000AF0283E00E94B500892B51F11093E4013F
:1008D0000E943D016093E5017093E6018093E7017A
:1008E0009093E80160E085E00E94DE0061E086E030
:1008F0000E94DE0083E891E00E945E028091E401A4
:1009000090E00E94BD028EE391E00E945E020E9490
:100910003D014AE00E946B028CE891E00E94AF0228
:100920000E943D01C090E501D090E601E090E70112
:10093000F090E8016C197D098E099F09643F7140B0
:1009400081059105F0F08091E9018823D1F00E94A2
:1009500056021092E90185E391E00E945E028091C7
:10096000E90190E00E94BD028EE391E00E945E02E8
:100970000E943D014AE00E946B0282EB91E00E94DE
:10098000AF020E943D01C090E501D090E601E090E9
:10099000E701F090E8016C197D098E099F09643F19
:1009A000714081059105F0F08091E4018823D1F038
:1009B0000E9456021092E40183E891E00E945E02D8
:1009C0008091E40190E00E94BD028EE391E00E94DC
:1009D0005E020E943D014AE00E946B028BEC91E0B6
:1009E0000E94AF02209709F404CF0E94B30188232C
:1009F00009F4FFCE0E940000FCCEE7EFF1E0138285
:100A0000128288EE93E0A0E0B0E084839583A68311
:100A1000B78384E091E09183808385EC90E09587B3
:100A2000848784EC90E09787868780EC90E0918BB8
:100A3000808B81EC90E0938B828B82EC90E0958BA5
:100A4000848B86EC90E0978B868B118E128E138EA2
:100A5000148E0895A1E21A2EAA1BBB1BFD010DC026
:100A6000AA1FBB1FEE1FFF1FA217B307E407F5075E
:100A700020F0A21BB30BE40BF50B661F771F881F3A
:100A8000991F1A9469F760957095809590959B01D0
:100A9000AC01BD01CF010895EE0FFF1F0590F49149
:080AA000E02D0994F894FFCF4A
:100AA80000000000E901490176013602A70185012D
:100AB80099010D0A00536574757020456E642E2ED9
:100AC8002E00526967687442746E203D20436C6939
:100AD800636B656400737461747573523A00096DD1
:100AE800696C6C697328293A00095269676874420D
:100AF800746E203D3E206475726174696F6E4F6636
:100B080054696D65203D206D696C6C6973282900F6
:100B1800094C65667442746E203D20436C69636BB2
:100B28006564007374617475734C3A00094C6566AA
:100B38007442746E203D3E206475726174696F6EF4
:100B48004F6654696D65203D206D696C6C6973282A
:100B5800290009526967687442746E203D3E20532B
:100B6800746F704D6F746F72282900094C65667434
:100B780042746E203D3E2053746F704D6F746F72D7
:040B88002829000018
:00000001FF
